:03000000020D9C52
:0C0D9C00787FE4F6D8FD758120020B443E
:080C47008F198E188D178C1611
:100C4F00120AB58E1C8F1DE4FFFEFDFCAB19AA180E
:100C5F00A917A8161209FE502EE4FFFEFD7CBFABAC
:100C6F0019AA18A917A8161209FE601B4019E4FF4C
:100C7F00FE7D807C3FAB19AA18A917A8161208078A
:100C8F00120AB58E1C8F1DD3E51D9400E51C6480E0
:100C9F0094804020AC1AAD1BE4120A7C7B6D7AE77E
:100CAF00797B783F1208F8E4FBFA797A78C2120858
:080CBF0007020AB5AE1CAF1DCF
:010CC700220A
:100D7C00D2B27F467E00120CF6C2B2C295D2CD2200
:100D8C00D2B37F467E00120CF6C2B3D295C2CD22EE
:100CC8008E168F17120DA8D3EF9405EE64809480CA
:100CD8005018AF17AE16120DA8C3E49FEE6480F843
:0E0CE80074809850057E007F0122E4FEFF22FA
:100B4400E4F50CF50DF50EF50FF510F511F512F5AC
:100B540013F514F515120D55120D6B120D3B120DF4
:100B6400C67F0A7E00120CF6120D8CE4FF120D1DD6
:100B74008E128F13E4FF120D1D8E088F097F011250
:100B84000D1D8E0A8F0B7F02120D1D8E0C8F0DAC66
:100B94000CAD0DE4120A7C7BFE7AD47978783F128E
:100BA40008F87B337A33797778C2120807850C1AF0
:100BB400850D1B120C478E0E8F0F7402250FF50F37
:100BC400E4350EF50ED3E509946EE5089400500C57
:100BD400E514B40107E4F514F5158029D3E5099467
:100BE4007DE50894004019E5147015D3E513947D50
:100BF400E512940040057515018005751401800502
:100C0400E4F512F513E51464016003020B78AF0FE9
:100C1400AE0E120CC8EF4E7003020B78E51560039C
:100C2400020B78120D7C120DC17515017F0F7E0029
:100C3400120CF6120DC67F0A7E00120CF6120D8CF1
:030C4400020B7828
:100D3B00439107759D07E4F5BDF59743A20875BC74
:0A0D4B008043BC407F02FE020CF65C
:100D1D00EF5407FFE5BC54F84F4408F5BC00000044
:0E0D2D0000E5BC30E4FB53BCEFAFBD7E0022FE
:100D6B004392185391E743B20C53B1F3C2B3C2B2DF
:010D7B002255
:050DBC00C295C2CD222A
:050DC100D293D2942240
:050DC600C293C294225B
:100CF6005389F0438901E4FDFCC3ED9FEC9E501639
:100D0600758CFC758A18D28C308DFDC28DC28C0D07
:060D1600BD00010C80E3AA
:010D1C0022B4
:100D550075985075D7E075D6FE758E14438E01D201
:060D6500ACD29CD29922E1
:080DB4008F993099FDC29922CC
:050DCB00AE07020DB4AB
:10080000020B21E86480F8E933E83360110460F0FA
:10081000ED33EC337009E8FCE9FDEAFEEBFF22045E
:1008200060DED3EB9FEA9EE99DE8C2E78CF0C2F759
:1008300095F0400CE8CCF8E9CDF9EACEFAEBCFFB25
:10084000120AEC85D0F05804700320D5B3E8047088
:10085000075002B2D5020B2B92D5EC0460F7E4CC22
:10086000C0E0C398F8603B94186008400DD0E0FBEE
:10087000020B03E4FBFAC9FC8028E830E406E4C973
:10088000FBE4CAFCE830E305E4C9CACBFCE8540742
:100890006010F8C3E913F9EA13FAEB13FBEC13FC4D
:1008A000D8F130F52FC3E49CFCEF9BFFEE9AFEEDF0
:1008B00099FDD0E0FBEF4E4D4C701222DB03020B92
:1008C00028EC2CFCEF33FFEE33FEED33FDED30E78B
:1008D000EB020B03EF2BFFEE3AFEED39FDD0E0FB10
:1008E00050130BBB0003020B2BED13FDEE13FEEFB9
:0808F00013FFEC13FC020B03E3
:1008F800EC4D6011E8497017ED33EC3304600DE4FA
:10090800FCFFFEFD22E933E8330470F8020B2112E4
:100918000AEC58046009E4CC2481500628500902E6
:100928000B2B284003020B28C0E0EB4A7044B98027
:1009380006D0E0FB020B17EF4E701CBD8008EBFFE2
:10094800EAFEE9FD80EBE98DF0A4FEE5F00209E19D
:10095800E9CDF9EAFEEBFFEF89F0A4FCE5F0CE89DA
:10096800F0A42EFFE435F0CD89F0A42DFEE435F097
:100978008067EF4E7005BD80D780C3EF8BF0A4ACC5
:10098800F0EE8BF0A42CFCE435F0F8EF8AF0A42C00
:10099800E5F038FCE433CB8DF0A42CFCE5F03BF813
:1009A800EE8AF0A42CFCE5F038F8E433CF89F0A403
:1009B8002CFCE5F038CF3400CE89F0A42FFFE5F009
:1009C8003EFEE433C98DF0A42EFEE5F039CD8AF061
:1009D800A42FFFE5F03EFEE43DFD33D0E0FB5007D9
:1009E8000BBB000F020B2BEC2CFCEF33FFEE33FE9E
:0609F800ED33FD020B03CC
:1009FE0074F8CC6480CCC86480C8F58204604FC3A0
:100A0E00EB9FF5F0EA9E42F0E99D42F0E89C45F03E
:100A1E00603C501DE5825FFFE582D313CB5BCBF4C8
:100A2E002B5582FB50280ABA002409B900200880F1
:100A3E001DE5825BFBE582D313CF5FCFF4C3132F8B
:100A4E005582FF50090EBE00050DBD00010CC3EB13
:100A5E009FF5F0EA9E42F0E99D42F0E89C45F06079
:090A6E0007CC4820E701B3EC229B
:100A770075F020800E75F010800575F0087D007EFA
:100A8700007F003392D530D503120B36EC3340107C
:100A9700EF33FFEE33FEED33FDEC33FCD5F0ED2203
:0E0AA700E5F0247EA2D513CC92E7CDCEFF223F
:100AB500EDD2E7CD33EC3392D524814006E4FFFE39
:100AC500FDFC22FCE4CFCECDCC24E0501174FF8098
:100AD500EDC3CC13CCCD13CDCE13CECF13CF047035
:070AE500F030D5DE020B36F4
:100AEC00E9D2E7C933E833F892D5EDD2E7CD33EC50
:070AFC0033FC5002B2D522C9
:100B0300EC30E7100FBF000C0EBE00080DBD000453
:100B13000BEB6014A2D5EB13FCED92E7FD2274FFFF
:100B2300FCFDFEFF22E480F8A2D574FF13FC7D8058
:030B3300E480EF6C
:0E0B3600C3E49FFFE49EFEE49DFDE49CFC22D0
:0C0DA800EE30E707C3E49FFFE49EFE224C
:00000001FF
